:020000040800F2
:1000000008100020650700087D0700088107000828
:1000100085070008890700088D0700080000000018
:100020000000000000000000000000009107000830
:100030009507000800000000990700089D070008C8
:10004000A1070008A5070008A9070008AD070008D8
:10005000B1070008B5070008B9070008BD07000888
:10006000C1070008C5070008C9070008CD07000838
:10007000D1070008D5070008D9070008DD070008E8
:10008000E1070008E5070008E9070008ED07000898
:10009000F1070008F5070008F9070008FD07000848
:1000A0000108000805080008090800080D080008F4
:1000B0001108000815080008190800081D080008A4
:1000C0002108000825080008290800082D08000854
:1000D0003108000835080008390800083D08000804
:1000E0004108000845080008490800084D080008B4
:1000F0005108000855080008590800085D08000864
:100100006108000865080008690800086D08000813
:100110007108000875080008790800087D080008C3
:100120008108000885080008890800088D08000873
:100130009108000895080008990800089D08000823
:10014000A1080008A5080008A9080008AD080008D3
:10015000B1080008B5080008B9080008BD08000883
:10016000C1080008C5080008C9080008CD08000833
:10017000D1080008D5080008D908000800000000D0
:10018000DD080008E1080008E5080008E9080008A3
:10019000ED080008F1080008F5080008F908000853
:1001A000FD08000801090008050900080909000800
:1001B0000D090008110900081509000819090008AF
:1001C0001D09000821090008000000002509000899
:1001D000290900082D09000831090008350900081F
:1001E000390900083D0900084109000845090008CF
:1001F000490900084D09000800BF704730B500F0FC
:10020000CEF8DFF8781300200860DFF87423136855
:1002100043F40033136000F0C2F800241467BFF306
:100220004F8FD36EC3F34E34C3F3C90543F6E0706A
:1002300000EA441040EA857008612846451E0028FF
:10024000F4D12046441E0028EED1BFF34F8F106832
:1002500040F48030106000F0A2F840F20731DFF87F
:1002600024231160DFF82003036843F001130360C7
:1002700001688A07FCD500238360816811F00C0FA8
:10028000FBD14FF00112DFF804330260DFF80013F6
:10029000436001600468A201FCD5016C41F080510B
:1002A0000164DFF8F0120A6842F480320A604B6899
:1002B000DA03FCD50C6844F400340C604A689303FC
:1002C000FCD5DFF8D4128160826802F00C02082AA3
:1002D000FAD10168DFF8C432002441F40021016042
:1002E000426C012142F4804242641960026B002397
:1002F00042F01F020263416B4163826B8263016CB7
:1003000041F0005141F413110164426CDFF8901286
:1003100042F480724264DFF88C0201600022436282
:10032000DFF884120262DFF884224461DFF8803251
:100330008160DFF8800202604FF0884143624FF431
:1003400080540162C0224461C0214260DFF86832FB
:100350008160DFF868020360DFF8642242620021F6
:10036000016242F2601444614FF440228260DFF87F
:1003700054024FF0553100230160DFF84C224361F5
:1003800048F20D048160DFF84402DFF84412016096
:1003900040F25541426203624461816030BDBFF367
:1003A0004F8FBFF36F8F70470021D5E000BF00BFB4
:1003B00000BF00BF00BF00BF00BF00BF00BF00BF45
:1003C00000BF00BF00BF00BF00BF00BF00BF00BF35
:1003D00000BF00BF00BF00BF00BF00BF00BF00BF25
:1003E00000BF00BF00BF00BF00BF00BF00BF00BF15
:1003F00000BF00BF00BF00BF00BF00BF00BF00BF05
:1004000000BF00BF00BF00BF00BF00BF00BF00BFF4
:1004100000BF00BF00BF00BF00BF00BF00BF00BFE4
:1004200000BF00BF00BF00BF00BF00BF00BF00BFD4
:1004300000BF00BF00BF00BF00BF00BF00BF00BFC4
:1004400000BF00BF00BF00BF00BF00BF00BF00BFB4
:1004500000BF00BF00BF00BF00BF00BF00BF00BFA4
:1004600000BF00BF00BF00BF00BF00BF00BF00BF94
:1004700000BF00BF00BF00BF00BF00BF00BF00BF84
:1004800000BF00BF00BF00BF00BF00BF00BF00BF74
:1004900000BF00BF00BF00BF00BF00BF00BF00BF64
:1004A00000BF00BF00BF00BF00BF00BF00BF00BF54
:1004B00000BF00BF00BF00BF00BF00BF00BF00BF44
:1004C00000BF00BF00BF00BF00BF00BF00BF00BF34
:1004D00000BF00BF00BF00BF00BF00BF00BF00BF24
:1004E00000BF00BF00BF00BF00BF00BF00BF00BF14
:1004F00000BF00BF00BF00BF00BF00BF00BF00BF04
:1005000000BF00BF00BF00BF00BF00BF00BF00BFF3
:1005100000BF00BF00BF00BF00BF00BF00BF00BFE3
:1005200000BF00BF00BF00BF00BF00BF00BF00BFD3
:1005300000BF00BF00BF00BF00BF00BF00BF00BFC3
:1005400000BF00BF00BF00BF00BF00BF00BF00BFB3
:1005500000BF00BF00BF491CB1EB400FFFF426AF46
:10056000704738B50446002504E04FF47A706D1CDE
:10057000FFF71AFFA542F8D331BD000050EF00E0AD
:1005800014ED00E0003C024000380240083640090B
:10059000010001010070004002B4403020380140E9
:1005A000FFFF56A900000240000003FC94A2AAA984
:1005B00099775055000402400015A94600080240F2
:1005C00000660600000C02401111550500100240A3
:1005D0005555AA6A254801687047000070B5FFF7B5
:1005E0000DFE3220224EFFF7BCFFFFF7F3FF41F074
:1005F00008010160306840F4AA4030604FF4FA65A9
:100600002C46706920F0F000706100F01CF800F0DA
:1006100011F8641EF5D100F013F8706920F0F000B5
:10062000706100F018F800F005F86D1EF5D100F0CB
:1006300007F8E3E77169084370610520FFF791BF90
:100640006420FFF78EBF08484168491C0429A8BFF1
:10065000002105E0000004484168491E48BF03210D
:100660004160405C704700000000002030380240CC
:10067000000C02400EE002684368024408305FEA62
:10068000C37C44BF4B445B1E52F804CB43F804CBFD
:10069000091FF9D150F8041B0029ECD17047000064
:1006A00010B5074979441831064C7C44163404E0EF
:1006B0000A68081D114488470146A142F8D110BDBF
:1006C0002C0000003C0000004EF68851CEF20001E4
:1006D000086840F470000860BFF34F8FBFF36F8F5E
:1006E0004FF00170E1EE100A7047000089FFFFFF34
:1006F0000800000080000000000000200000000052
:1007000000F00DF8002801D0FFF7CAFFAFF300801A
:100710000020AFF30080FFF761FF00F002F8012036
:10072000704700F001B800000746384600F002F8B4
:10073000FBE7000080B5AFF30080024A11001820EB
:10074000ABBEFBE7260002000548014603B468463D
:1007500080F30988AFF30080FFF7B6FFFFF7D0FF03
:10076000A5EDF5FE0148804701480047F901000862
:100770004907000810204080FFFFFFFFFFF7FEBF82
:10078000FFF7FEBFFFF7FEBFFFF7FEBFFFF7FEBF9D
:10079000FFF7FEBFFFF7FEBFFFF7FEBFFFF7FEBF8D
:1007A000FFF7FEBFFFF7FEBFFFF7FEBFFFF7FEBF7D
:1007B000FFF7FEBFFFF7FEBFFFF7FEBFFFF7FEBF6D
:1007C000FFF7FEBFFFF7FEBFFFF7FEBFFFF7FEBF5D
:1007D000FFF7FEBFFFF7FEBFFFF7FEBFFFF7FEBF4D
:1007E000FFF7FEBFFFF7FEBFFFF7FEBFFFF7FEBF3D
:1007F000FFF7FEBFFFF7FEBFFFF7FEBFFFF7FEBF2D
:10080000FFF7FEBFFFF7FEBFFFF7FEBFFFF7FEBF1C
:10081000FFF7FEBFFFF7FEBFFFF7FEBFFFF7FEBF0C
:10082000FFF7FEBFFFF7FEBFFFF7FEBFFFF7FEBFFC
:10083000FFF7FEBFFFF7FEBFFFF7FEBFFFF7FEBFEC
:10084000FFF7FEBFFFF7FEBFFFF7FEBFFFF7FEBFDC
:10085000FFF7FEBFFFF7FEBFFFF7FEBFFFF7FEBFCC
:10086000FFF7FEBFFFF7FEBFFFF7FEBFFFF7FEBFBC
:10087000FFF7FEBFFFF7FEBFFFF7FEBFFFF7FEBFAC
:10088000FFF7FEBFFFF7FEBFFFF7FEBFFFF7FEBF9C
:10089000FFF7FEBFFFF7FEBFFFF7FEBFFFF7FEBF8C
:1008A000FFF7FEBFFFF7FEBFFFF7FEBFFFF7FEBF7C
:1008B000FFF7FEBFFFF7FEBFFFF7FEBFFFF7FEBF6C
:1008C000FFF7FEBFFFF7FEBFFFF7FEBFFFF7FEBF5C
:1008D000FFF7FEBFFFF7FEBFFFF7FEBFFFF7FEBF4C
:1008E000FFF7FEBFFFF7FEBFFFF7FEBFFFF7FEBF3C
:1008F000FFF7FEBFFFF7FEBFFFF7FEBFFFF7FEBF2C
:10090000FFF7FEBFFFF7FEBFFFF7FEBFFFF7FEBF1B
:10091000FFF7FEBFFFF7FEBFFFF7FEBFFFF7FEBF0B
:10092000FFF7FEBFFFF7FEBFFFF7FEBFFFF7FEBFFB
:10093000FFF7FEBFFFF7FEBFFFF7FEBFFFF7FEBFEB
:10094000FFF7FEBFFFF7FEBFFFF7FEBFFFF7FEBFDB
:04000005080007499F
:00000001FF
